ARM GAS  C:\Users\rolsa\AppData\Local\Temp\cclyXOdI.s 			page 1


   1              		.syntax unified
   2              		.cpu cortex-m3
   3              		.fpu softvfp
   4              		.eabi_attribute 20, 1
   5              		.eabi_attribute 21, 1
   6              		.eabi_attribute 23, 3
   7              		.eabi_attribute 24, 1
   8              		.eabi_attribute 25, 1
   9              		.eabi_attribute 26, 1
  10              		.eabi_attribute 30, 1
  11              		.eabi_attribute 34, 1
  12              		.eabi_attribute 18, 4
  13              		.thumb
  14              		.syntax unified
  15              		.file	"displayFont5x7.c"
  16              		.text
  17              	.Ltext0:
  18              		.cfi_sections	.debug_frame
  19              		.global	font
  20              		.section	.rodata
  21              		.align	2
  22              		.type	font, %object
  23              		.size	font, 1275
  24              	font:
  25 0000 00       		.byte	0
  26 0001 00       		.byte	0
  27 0002 00       		.byte	0
  28 0003 00       		.byte	0
  29 0004 00       		.byte	0
  30 0005 3E       		.byte	62
  31 0006 5B       		.byte	91
  32 0007 4F       		.byte	79
  33 0008 5B       		.byte	91
  34 0009 3E       		.byte	62
  35 000a 3E       		.byte	62
  36 000b 6B       		.byte	107
  37 000c 4F       		.byte	79
  38 000d 6B       		.byte	107
  39 000e 3E       		.byte	62
  40 000f 1C       		.byte	28
  41 0010 3E       		.byte	62
  42 0011 7C       		.byte	124
  43 0012 3E       		.byte	62
  44 0013 1C       		.byte	28
  45 0014 18       		.byte	24
  46 0015 3C       		.byte	60
  47 0016 7E       		.byte	126
  48 0017 3C       		.byte	60
  49 0018 18       		.byte	24
  50 0019 1C       		.byte	28
  51 001a 57       		.byte	87
  52 001b 7D       		.byte	125
  53 001c 57       		.byte	87
  54 001d 1C       		.byte	28
  55 001e 1C       		.byte	28
  56 001f 5E       		.byte	94
  57 0020 7F       		.byte	127
ARM GAS  C:\Users\rolsa\AppData\Local\Temp\cclyXOdI.s 			page 2


  58 0021 5E       		.byte	94
  59 0022 1C       		.byte	28
  60 0023 00       		.byte	0
  61 0024 18       		.byte	24
  62 0025 3C       		.byte	60
  63 0026 18       		.byte	24
  64 0027 00       		.byte	0
  65 0028 FF       		.byte	-1
  66 0029 E7       		.byte	-25
  67 002a C3       		.byte	-61
  68 002b E7       		.byte	-25
  69 002c FF       		.byte	-1
  70 002d 00       		.byte	0
  71 002e 18       		.byte	24
  72 002f 24       		.byte	36
  73 0030 18       		.byte	24
  74 0031 00       		.byte	0
  75 0032 FF       		.byte	-1
  76 0033 E7       		.byte	-25
  77 0034 DB       		.byte	-37
  78 0035 E7       		.byte	-25
  79 0036 FF       		.byte	-1
  80 0037 30       		.byte	48
  81 0038 48       		.byte	72
  82 0039 3A       		.byte	58
  83 003a 06       		.byte	6
  84 003b 0E       		.byte	14
  85 003c 26       		.byte	38
  86 003d 29       		.byte	41
  87 003e 79       		.byte	121
  88 003f 29       		.byte	41
  89 0040 26       		.byte	38
  90 0041 40       		.byte	64
  91 0042 7F       		.byte	127
  92 0043 05       		.byte	5
  93 0044 05       		.byte	5
  94 0045 07       		.byte	7
  95 0046 40       		.byte	64
  96 0047 7F       		.byte	127
  97 0048 05       		.byte	5
  98 0049 25       		.byte	37
  99 004a 3F       		.byte	63
 100 004b 5A       		.byte	90
 101 004c 3C       		.byte	60
 102 004d E7       		.byte	-25
 103 004e 3C       		.byte	60
 104 004f 5A       		.byte	90
 105 0050 7F       		.byte	127
 106 0051 3E       		.byte	62
 107 0052 1C       		.byte	28
 108 0053 1C       		.byte	28
 109 0054 08       		.byte	8
 110 0055 08       		.byte	8
 111 0056 1C       		.byte	28
 112 0057 1C       		.byte	28
 113 0058 3E       		.byte	62
 114 0059 7F       		.byte	127
ARM GAS  C:\Users\rolsa\AppData\Local\Temp\cclyXOdI.s 			page 3


 115 005a 14       		.byte	20
 116 005b 22       		.byte	34
 117 005c 7F       		.byte	127
 118 005d 22       		.byte	34
 119 005e 14       		.byte	20
 120 005f 5F       		.byte	95
 121 0060 5F       		.byte	95
 122 0061 00       		.byte	0
 123 0062 5F       		.byte	95
 124 0063 5F       		.byte	95
 125 0064 06       		.byte	6
 126 0065 09       		.byte	9
 127 0066 7F       		.byte	127
 128 0067 01       		.byte	1
 129 0068 7F       		.byte	127
 130 0069 00       		.byte	0
 131 006a 66       		.byte	102
 132 006b 89       		.byte	-119
 133 006c 95       		.byte	-107
 134 006d 6A       		.byte	106
 135 006e 60       		.byte	96
 136 006f 60       		.byte	96
 137 0070 60       		.byte	96
 138 0071 60       		.byte	96
 139 0072 60       		.byte	96
 140 0073 94       		.byte	-108
 141 0074 A2       		.byte	-94
 142 0075 FF       		.byte	-1
 143 0076 A2       		.byte	-94
 144 0077 94       		.byte	-108
 145 0078 08       		.byte	8
 146 0079 04       		.byte	4
 147 007a 7E       		.byte	126
 148 007b 04       		.byte	4
 149 007c 08       		.byte	8
 150 007d 10       		.byte	16
 151 007e 20       		.byte	32
 152 007f 7E       		.byte	126
 153 0080 20       		.byte	32
 154 0081 10       		.byte	16
 155 0082 08       		.byte	8
 156 0083 08       		.byte	8
 157 0084 2A       		.byte	42
 158 0085 1C       		.byte	28
 159 0086 08       		.byte	8
 160 0087 08       		.byte	8
 161 0088 1C       		.byte	28
 162 0089 2A       		.byte	42
 163 008a 08       		.byte	8
 164 008b 08       		.byte	8
 165 008c 1E       		.byte	30
 166 008d 10       		.byte	16
 167 008e 10       		.byte	16
 168 008f 10       		.byte	16
 169 0090 10       		.byte	16
 170 0091 0C       		.byte	12
 171 0092 1E       		.byte	30
ARM GAS  C:\Users\rolsa\AppData\Local\Temp\cclyXOdI.s 			page 4


 172 0093 0C       		.byte	12
 173 0094 1E       		.byte	30
 174 0095 0C       		.byte	12
 175 0096 30       		.byte	48
 176 0097 38       		.byte	56
 177 0098 3E       		.byte	62
 178 0099 38       		.byte	56
 179 009a 30       		.byte	48
 180 009b 06       		.byte	6
 181 009c 0E       		.byte	14
 182 009d 3E       		.byte	62
 183 009e 0E       		.byte	14
 184 009f 06       		.byte	6
 185 00a0 00       		.byte	0
 186 00a1 00       		.byte	0
 187 00a2 00       		.byte	0
 188 00a3 00       		.byte	0
 189 00a4 00       		.byte	0
 190 00a5 00       		.byte	0
 191 00a6 00       		.byte	0
 192 00a7 5F       		.byte	95
 193 00a8 00       		.byte	0
 194 00a9 00       		.byte	0
 195 00aa 00       		.byte	0
 196 00ab 07       		.byte	7
 197 00ac 00       		.byte	0
 198 00ad 07       		.byte	7
 199 00ae 00       		.byte	0
 200 00af 14       		.byte	20
 201 00b0 7F       		.byte	127
 202 00b1 14       		.byte	20
 203 00b2 7F       		.byte	127
 204 00b3 14       		.byte	20
 205 00b4 24       		.byte	36
 206 00b5 2A       		.byte	42
 207 00b6 7F       		.byte	127
 208 00b7 2A       		.byte	42
 209 00b8 12       		.byte	18
 210 00b9 23       		.byte	35
 211 00ba 13       		.byte	19
 212 00bb 08       		.byte	8
 213 00bc 64       		.byte	100
 214 00bd 62       		.byte	98
 215 00be 36       		.byte	54
 216 00bf 49       		.byte	73
 217 00c0 56       		.byte	86
 218 00c1 20       		.byte	32
 219 00c2 50       		.byte	80
 220 00c3 00       		.byte	0
 221 00c4 08       		.byte	8
 222 00c5 07       		.byte	7
 223 00c6 03       		.byte	3
 224 00c7 00       		.byte	0
 225 00c8 00       		.byte	0
 226 00c9 1C       		.byte	28
 227 00ca 22       		.byte	34
 228 00cb 41       		.byte	65
ARM GAS  C:\Users\rolsa\AppData\Local\Temp\cclyXOdI.s 			page 5


 229 00cc 00       		.byte	0
 230 00cd 00       		.byte	0
 231 00ce 41       		.byte	65
 232 00cf 22       		.byte	34
 233 00d0 1C       		.byte	28
 234 00d1 00       		.byte	0
 235 00d2 2A       		.byte	42
 236 00d3 1C       		.byte	28
 237 00d4 7F       		.byte	127
 238 00d5 1C       		.byte	28
 239 00d6 2A       		.byte	42
 240 00d7 08       		.byte	8
 241 00d8 08       		.byte	8
 242 00d9 3E       		.byte	62
 243 00da 08       		.byte	8
 244 00db 08       		.byte	8
 245 00dc 00       		.byte	0
 246 00dd 80       		.byte	-128
 247 00de 70       		.byte	112
 248 00df 30       		.byte	48
 249 00e0 00       		.byte	0
 250 00e1 08       		.byte	8
 251 00e2 08       		.byte	8
 252 00e3 08       		.byte	8
 253 00e4 08       		.byte	8
 254 00e5 08       		.byte	8
 255 00e6 00       		.byte	0
 256 00e7 00       		.byte	0
 257 00e8 60       		.byte	96
 258 00e9 60       		.byte	96
 259 00ea 00       		.byte	0
 260 00eb 20       		.byte	32
 261 00ec 10       		.byte	16
 262 00ed 08       		.byte	8
 263 00ee 04       		.byte	4
 264 00ef 02       		.byte	2
 265 00f0 3E       		.byte	62
 266 00f1 51       		.byte	81
 267 00f2 49       		.byte	73
 268 00f3 45       		.byte	69
 269 00f4 3E       		.byte	62
 270 00f5 00       		.byte	0
 271 00f6 42       		.byte	66
 272 00f7 7F       		.byte	127
 273 00f8 40       		.byte	64
 274 00f9 00       		.byte	0
 275 00fa 72       		.byte	114
 276 00fb 49       		.byte	73
 277 00fc 49       		.byte	73
 278 00fd 49       		.byte	73
 279 00fe 46       		.byte	70
 280 00ff 21       		.byte	33
 281 0100 41       		.byte	65
 282 0101 49       		.byte	73
 283 0102 4D       		.byte	77
 284 0103 33       		.byte	51
 285 0104 18       		.byte	24
ARM GAS  C:\Users\rolsa\AppData\Local\Temp\cclyXOdI.s 			page 6


 286 0105 14       		.byte	20
 287 0106 12       		.byte	18
 288 0107 7F       		.byte	127
 289 0108 10       		.byte	16
 290 0109 27       		.byte	39
 291 010a 45       		.byte	69
 292 010b 45       		.byte	69
 293 010c 45       		.byte	69
 294 010d 39       		.byte	57
 295 010e 3C       		.byte	60
 296 010f 4A       		.byte	74
 297 0110 49       		.byte	73
 298 0111 49       		.byte	73
 299 0112 31       		.byte	49
 300 0113 41       		.byte	65
 301 0114 21       		.byte	33
 302 0115 11       		.byte	17
 303 0116 09       		.byte	9
 304 0117 07       		.byte	7
 305 0118 36       		.byte	54
 306 0119 49       		.byte	73
 307 011a 49       		.byte	73
 308 011b 49       		.byte	73
 309 011c 36       		.byte	54
 310 011d 46       		.byte	70
 311 011e 49       		.byte	73
 312 011f 49       		.byte	73
 313 0120 29       		.byte	41
 314 0121 1E       		.byte	30
 315 0122 00       		.byte	0
 316 0123 00       		.byte	0
 317 0124 14       		.byte	20
 318 0125 00       		.byte	0
 319 0126 00       		.byte	0
 320 0127 00       		.byte	0
 321 0128 40       		.byte	64
 322 0129 34       		.byte	52
 323 012a 00       		.byte	0
 324 012b 00       		.byte	0
 325 012c 00       		.byte	0
 326 012d 08       		.byte	8
 327 012e 14       		.byte	20
 328 012f 22       		.byte	34
 329 0130 41       		.byte	65
 330 0131 14       		.byte	20
 331 0132 14       		.byte	20
 332 0133 14       		.byte	20
 333 0134 14       		.byte	20
 334 0135 14       		.byte	20
 335 0136 00       		.byte	0
 336 0137 41       		.byte	65
 337 0138 22       		.byte	34
 338 0139 14       		.byte	20
 339 013a 08       		.byte	8
 340 013b 02       		.byte	2
 341 013c 01       		.byte	1
 342 013d 59       		.byte	89
ARM GAS  C:\Users\rolsa\AppData\Local\Temp\cclyXOdI.s 			page 7


 343 013e 09       		.byte	9
 344 013f 06       		.byte	6
 345 0140 3E       		.byte	62
 346 0141 41       		.byte	65
 347 0142 5D       		.byte	93
 348 0143 59       		.byte	89
 349 0144 4E       		.byte	78
 350 0145 7C       		.byte	124
 351 0146 12       		.byte	18
 352 0147 11       		.byte	17
 353 0148 12       		.byte	18
 354 0149 7C       		.byte	124
 355 014a 7F       		.byte	127
 356 014b 49       		.byte	73
 357 014c 49       		.byte	73
 358 014d 49       		.byte	73
 359 014e 36       		.byte	54
 360 014f 3E       		.byte	62
 361 0150 41       		.byte	65
 362 0151 41       		.byte	65
 363 0152 41       		.byte	65
 364 0153 22       		.byte	34
 365 0154 7F       		.byte	127
 366 0155 41       		.byte	65
 367 0156 41       		.byte	65
 368 0157 41       		.byte	65
 369 0158 3E       		.byte	62
 370 0159 7F       		.byte	127
 371 015a 49       		.byte	73
 372 015b 49       		.byte	73
 373 015c 49       		.byte	73
 374 015d 41       		.byte	65
 375 015e 7F       		.byte	127
 376 015f 09       		.byte	9
 377 0160 09       		.byte	9
 378 0161 09       		.byte	9
 379 0162 01       		.byte	1
 380 0163 3E       		.byte	62
 381 0164 41       		.byte	65
 382 0165 41       		.byte	65
 383 0166 51       		.byte	81
 384 0167 73       		.byte	115
 385 0168 7F       		.byte	127
 386 0169 08       		.byte	8
 387 016a 08       		.byte	8
 388 016b 08       		.byte	8
 389 016c 7F       		.byte	127
 390 016d 00       		.byte	0
 391 016e 41       		.byte	65
 392 016f 7F       		.byte	127
 393 0170 41       		.byte	65
 394 0171 00       		.byte	0
 395 0172 20       		.byte	32
 396 0173 40       		.byte	64
 397 0174 41       		.byte	65
 398 0175 3F       		.byte	63
 399 0176 01       		.byte	1
ARM GAS  C:\Users\rolsa\AppData\Local\Temp\cclyXOdI.s 			page 8


 400 0177 7F       		.byte	127
 401 0178 08       		.byte	8
 402 0179 14       		.byte	20
 403 017a 22       		.byte	34
 404 017b 41       		.byte	65
 405 017c 7F       		.byte	127
 406 017d 40       		.byte	64
 407 017e 40       		.byte	64
 408 017f 40       		.byte	64
 409 0180 40       		.byte	64
 410 0181 7F       		.byte	127
 411 0182 02       		.byte	2
 412 0183 1C       		.byte	28
 413 0184 02       		.byte	2
 414 0185 7F       		.byte	127
 415 0186 7F       		.byte	127
 416 0187 04       		.byte	4
 417 0188 08       		.byte	8
 418 0189 10       		.byte	16
 419 018a 7F       		.byte	127
 420 018b 3E       		.byte	62
 421 018c 41       		.byte	65
 422 018d 41       		.byte	65
 423 018e 41       		.byte	65
 424 018f 3E       		.byte	62
 425 0190 7F       		.byte	127
 426 0191 09       		.byte	9
 427 0192 09       		.byte	9
 428 0193 09       		.byte	9
 429 0194 06       		.byte	6
 430 0195 3E       		.byte	62
 431 0196 41       		.byte	65
 432 0197 51       		.byte	81
 433 0198 21       		.byte	33
 434 0199 5E       		.byte	94
 435 019a 7F       		.byte	127
 436 019b 09       		.byte	9
 437 019c 19       		.byte	25
 438 019d 29       		.byte	41
 439 019e 46       		.byte	70
 440 019f 26       		.byte	38
 441 01a0 49       		.byte	73
 442 01a1 49       		.byte	73
 443 01a2 49       		.byte	73
 444 01a3 32       		.byte	50
 445 01a4 03       		.byte	3
 446 01a5 01       		.byte	1
 447 01a6 7F       		.byte	127
 448 01a7 01       		.byte	1
 449 01a8 03       		.byte	3
 450 01a9 3F       		.byte	63
 451 01aa 40       		.byte	64
 452 01ab 40       		.byte	64
 453 01ac 40       		.byte	64
 454 01ad 3F       		.byte	63
 455 01ae 1F       		.byte	31
 456 01af 20       		.byte	32
ARM GAS  C:\Users\rolsa\AppData\Local\Temp\cclyXOdI.s 			page 9


 457 01b0 40       		.byte	64
 458 01b1 20       		.byte	32
 459 01b2 1F       		.byte	31
 460 01b3 3F       		.byte	63
 461 01b4 40       		.byte	64
 462 01b5 38       		.byte	56
 463 01b6 40       		.byte	64
 464 01b7 3F       		.byte	63
 465 01b8 63       		.byte	99
 466 01b9 14       		.byte	20
 467 01ba 08       		.byte	8
 468 01bb 14       		.byte	20
 469 01bc 63       		.byte	99
 470 01bd 03       		.byte	3
 471 01be 04       		.byte	4
 472 01bf 78       		.byte	120
 473 01c0 04       		.byte	4
 474 01c1 03       		.byte	3
 475 01c2 61       		.byte	97
 476 01c3 59       		.byte	89
 477 01c4 49       		.byte	73
 478 01c5 4D       		.byte	77
 479 01c6 43       		.byte	67
 480 01c7 00       		.byte	0
 481 01c8 7F       		.byte	127
 482 01c9 41       		.byte	65
 483 01ca 41       		.byte	65
 484 01cb 41       		.byte	65
 485 01cc 02       		.byte	2
 486 01cd 04       		.byte	4
 487 01ce 08       		.byte	8
 488 01cf 10       		.byte	16
 489 01d0 20       		.byte	32
 490 01d1 00       		.byte	0
 491 01d2 41       		.byte	65
 492 01d3 41       		.byte	65
 493 01d4 41       		.byte	65
 494 01d5 7F       		.byte	127
 495 01d6 04       		.byte	4
 496 01d7 02       		.byte	2
 497 01d8 01       		.byte	1
 498 01d9 02       		.byte	2
 499 01da 04       		.byte	4
 500 01db 40       		.byte	64
 501 01dc 40       		.byte	64
 502 01dd 40       		.byte	64
 503 01de 40       		.byte	64
 504 01df 40       		.byte	64
 505 01e0 00       		.byte	0
 506 01e1 03       		.byte	3
 507 01e2 07       		.byte	7
 508 01e3 08       		.byte	8
 509 01e4 00       		.byte	0
 510 01e5 20       		.byte	32
 511 01e6 54       		.byte	84
 512 01e7 54       		.byte	84
 513 01e8 78       		.byte	120
ARM GAS  C:\Users\rolsa\AppData\Local\Temp\cclyXOdI.s 			page 10


 514 01e9 40       		.byte	64
 515 01ea 7F       		.byte	127
 516 01eb 28       		.byte	40
 517 01ec 44       		.byte	68
 518 01ed 44       		.byte	68
 519 01ee 38       		.byte	56
 520 01ef 38       		.byte	56
 521 01f0 44       		.byte	68
 522 01f1 44       		.byte	68
 523 01f2 44       		.byte	68
 524 01f3 28       		.byte	40
 525 01f4 38       		.byte	56
 526 01f5 44       		.byte	68
 527 01f6 44       		.byte	68
 528 01f7 28       		.byte	40
 529 01f8 7F       		.byte	127
 530 01f9 38       		.byte	56
 531 01fa 54       		.byte	84
 532 01fb 54       		.byte	84
 533 01fc 54       		.byte	84
 534 01fd 18       		.byte	24
 535 01fe 00       		.byte	0
 536 01ff 08       		.byte	8
 537 0200 7E       		.byte	126
 538 0201 09       		.byte	9
 539 0202 02       		.byte	2
 540 0203 18       		.byte	24
 541 0204 A4       		.byte	-92
 542 0205 A4       		.byte	-92
 543 0206 9C       		.byte	-100
 544 0207 78       		.byte	120
 545 0208 7F       		.byte	127
 546 0209 08       		.byte	8
 547 020a 04       		.byte	4
 548 020b 04       		.byte	4
 549 020c 78       		.byte	120
 550 020d 00       		.byte	0
 551 020e 44       		.byte	68
 552 020f 7D       		.byte	125
 553 0210 40       		.byte	64
 554 0211 00       		.byte	0
 555 0212 20       		.byte	32
 556 0213 40       		.byte	64
 557 0214 40       		.byte	64
 558 0215 3D       		.byte	61
 559 0216 00       		.byte	0
 560 0217 7F       		.byte	127
 561 0218 10       		.byte	16
 562 0219 28       		.byte	40
 563 021a 44       		.byte	68
 564 021b 00       		.byte	0
 565 021c 00       		.byte	0
 566 021d 41       		.byte	65
 567 021e 7F       		.byte	127
 568 021f 40       		.byte	64
 569 0220 00       		.byte	0
 570 0221 7C       		.byte	124
ARM GAS  C:\Users\rolsa\AppData\Local\Temp\cclyXOdI.s 			page 11


 571 0222 04       		.byte	4
 572 0223 78       		.byte	120
 573 0224 04       		.byte	4
 574 0225 78       		.byte	120
 575 0226 7C       		.byte	124
 576 0227 08       		.byte	8
 577 0228 04       		.byte	4
 578 0229 04       		.byte	4
 579 022a 78       		.byte	120
 580 022b 38       		.byte	56
 581 022c 44       		.byte	68
 582 022d 44       		.byte	68
 583 022e 44       		.byte	68
 584 022f 38       		.byte	56
 585 0230 FC       		.byte	-4
 586 0231 18       		.byte	24
 587 0232 24       		.byte	36
 588 0233 24       		.byte	36
 589 0234 18       		.byte	24
 590 0235 18       		.byte	24
 591 0236 24       		.byte	36
 592 0237 24       		.byte	36
 593 0238 18       		.byte	24
 594 0239 FC       		.byte	-4
 595 023a 7C       		.byte	124
 596 023b 08       		.byte	8
 597 023c 04       		.byte	4
 598 023d 04       		.byte	4
 599 023e 08       		.byte	8
 600 023f 48       		.byte	72
 601 0240 54       		.byte	84
 602 0241 54       		.byte	84
 603 0242 54       		.byte	84
 604 0243 24       		.byte	36
 605 0244 04       		.byte	4
 606 0245 04       		.byte	4
 607 0246 3F       		.byte	63
 608 0247 44       		.byte	68
 609 0248 24       		.byte	36
 610 0249 3C       		.byte	60
 611 024a 40       		.byte	64
 612 024b 40       		.byte	64
 613 024c 20       		.byte	32
 614 024d 7C       		.byte	124
 615 024e 1C       		.byte	28
 616 024f 20       		.byte	32
 617 0250 40       		.byte	64
 618 0251 20       		.byte	32
 619 0252 1C       		.byte	28
 620 0253 3C       		.byte	60
 621 0254 40       		.byte	64
 622 0255 30       		.byte	48
 623 0256 40       		.byte	64
 624 0257 3C       		.byte	60
 625 0258 44       		.byte	68
 626 0259 28       		.byte	40
 627 025a 10       		.byte	16
ARM GAS  C:\Users\rolsa\AppData\Local\Temp\cclyXOdI.s 			page 12


 628 025b 28       		.byte	40
 629 025c 44       		.byte	68
 630 025d 4C       		.byte	76
 631 025e 90       		.byte	-112
 632 025f 90       		.byte	-112
 633 0260 90       		.byte	-112
 634 0261 7C       		.byte	124
 635 0262 44       		.byte	68
 636 0263 64       		.byte	100
 637 0264 54       		.byte	84
 638 0265 4C       		.byte	76
 639 0266 44       		.byte	68
 640 0267 00       		.byte	0
 641 0268 08       		.byte	8
 642 0269 36       		.byte	54
 643 026a 41       		.byte	65
 644 026b 00       		.byte	0
 645 026c 00       		.byte	0
 646 026d 00       		.byte	0
 647 026e 77       		.byte	119
 648 026f 00       		.byte	0
 649 0270 00       		.byte	0
 650 0271 00       		.byte	0
 651 0272 41       		.byte	65
 652 0273 36       		.byte	54
 653 0274 08       		.byte	8
 654 0275 00       		.byte	0
 655 0276 02       		.byte	2
 656 0277 01       		.byte	1
 657 0278 02       		.byte	2
 658 0279 04       		.byte	4
 659 027a 02       		.byte	2
 660 027b 3C       		.byte	60
 661 027c 26       		.byte	38
 662 027d 23       		.byte	35
 663 027e 26       		.byte	38
 664 027f 3C       		.byte	60
 665 0280 1E       		.byte	30
 666 0281 A1       		.byte	-95
 667 0282 A1       		.byte	-95
 668 0283 61       		.byte	97
 669 0284 12       		.byte	18
 670 0285 3A       		.byte	58
 671 0286 40       		.byte	64
 672 0287 40       		.byte	64
 673 0288 20       		.byte	32
 674 0289 7A       		.byte	122
 675 028a 38       		.byte	56
 676 028b 54       		.byte	84
 677 028c 54       		.byte	84
 678 028d 55       		.byte	85
 679 028e 59       		.byte	89
 680 028f 21       		.byte	33
 681 0290 55       		.byte	85
 682 0291 55       		.byte	85
 683 0292 79       		.byte	121
 684 0293 41       		.byte	65
ARM GAS  C:\Users\rolsa\AppData\Local\Temp\cclyXOdI.s 			page 13


 685 0294 21       		.byte	33
 686 0295 54       		.byte	84
 687 0296 54       		.byte	84
 688 0297 78       		.byte	120
 689 0298 41       		.byte	65
 690 0299 21       		.byte	33
 691 029a 55       		.byte	85
 692 029b 54       		.byte	84
 693 029c 78       		.byte	120
 694 029d 40       		.byte	64
 695 029e 20       		.byte	32
 696 029f 54       		.byte	84
 697 02a0 55       		.byte	85
 698 02a1 79       		.byte	121
 699 02a2 40       		.byte	64
 700 02a3 0C       		.byte	12
 701 02a4 1E       		.byte	30
 702 02a5 52       		.byte	82
 703 02a6 72       		.byte	114
 704 02a7 12       		.byte	18
 705 02a8 39       		.byte	57
 706 02a9 55       		.byte	85
 707 02aa 55       		.byte	85
 708 02ab 55       		.byte	85
 709 02ac 59       		.byte	89
 710 02ad 39       		.byte	57
 711 02ae 54       		.byte	84
 712 02af 54       		.byte	84
 713 02b0 54       		.byte	84
 714 02b1 59       		.byte	89
 715 02b2 39       		.byte	57
 716 02b3 55       		.byte	85
 717 02b4 54       		.byte	84
 718 02b5 54       		.byte	84
 719 02b6 58       		.byte	88
 720 02b7 00       		.byte	0
 721 02b8 00       		.byte	0
 722 02b9 45       		.byte	69
 723 02ba 7C       		.byte	124
 724 02bb 41       		.byte	65
 725 02bc 00       		.byte	0
 726 02bd 02       		.byte	2
 727 02be 45       		.byte	69
 728 02bf 7D       		.byte	125
 729 02c0 42       		.byte	66
 730 02c1 00       		.byte	0
 731 02c2 01       		.byte	1
 732 02c3 45       		.byte	69
 733 02c4 7C       		.byte	124
 734 02c5 40       		.byte	64
 735 02c6 F0       		.byte	-16
 736 02c7 29       		.byte	41
 737 02c8 24       		.byte	36
 738 02c9 29       		.byte	41
 739 02ca F0       		.byte	-16
 740 02cb F0       		.byte	-16
 741 02cc 28       		.byte	40
ARM GAS  C:\Users\rolsa\AppData\Local\Temp\cclyXOdI.s 			page 14


 742 02cd 25       		.byte	37
 743 02ce 28       		.byte	40
 744 02cf F0       		.byte	-16
 745 02d0 7C       		.byte	124
 746 02d1 54       		.byte	84
 747 02d2 55       		.byte	85
 748 02d3 45       		.byte	69
 749 02d4 00       		.byte	0
 750 02d5 20       		.byte	32
 751 02d6 54       		.byte	84
 752 02d7 54       		.byte	84
 753 02d8 7C       		.byte	124
 754 02d9 54       		.byte	84
 755 02da 7C       		.byte	124
 756 02db 0A       		.byte	10
 757 02dc 09       		.byte	9
 758 02dd 7F       		.byte	127
 759 02de 49       		.byte	73
 760 02df 32       		.byte	50
 761 02e0 49       		.byte	73
 762 02e1 49       		.byte	73
 763 02e2 49       		.byte	73
 764 02e3 32       		.byte	50
 765 02e4 32       		.byte	50
 766 02e5 48       		.byte	72
 767 02e6 48       		.byte	72
 768 02e7 48       		.byte	72
 769 02e8 32       		.byte	50
 770 02e9 32       		.byte	50
 771 02ea 4A       		.byte	74
 772 02eb 48       		.byte	72
 773 02ec 48       		.byte	72
 774 02ed 30       		.byte	48
 775 02ee 3A       		.byte	58
 776 02ef 41       		.byte	65
 777 02f0 41       		.byte	65
 778 02f1 21       		.byte	33
 779 02f2 7A       		.byte	122
 780 02f3 3A       		.byte	58
 781 02f4 42       		.byte	66
 782 02f5 40       		.byte	64
 783 02f6 20       		.byte	32
 784 02f7 78       		.byte	120
 785 02f8 00       		.byte	0
 786 02f9 9D       		.byte	-99
 787 02fa A0       		.byte	-96
 788 02fb A0       		.byte	-96
 789 02fc 7D       		.byte	125
 790 02fd 39       		.byte	57
 791 02fe 44       		.byte	68
 792 02ff 44       		.byte	68
 793 0300 44       		.byte	68
 794 0301 39       		.byte	57
 795 0302 3D       		.byte	61
 796 0303 40       		.byte	64
 797 0304 40       		.byte	64
 798 0305 40       		.byte	64
ARM GAS  C:\Users\rolsa\AppData\Local\Temp\cclyXOdI.s 			page 15


 799 0306 3D       		.byte	61
 800 0307 3C       		.byte	60
 801 0308 24       		.byte	36
 802 0309 FF       		.byte	-1
 803 030a 24       		.byte	36
 804 030b 24       		.byte	36
 805 030c 48       		.byte	72
 806 030d 7E       		.byte	126
 807 030e 49       		.byte	73
 808 030f 43       		.byte	67
 809 0310 66       		.byte	102
 810 0311 2B       		.byte	43
 811 0312 2F       		.byte	47
 812 0313 FC       		.byte	-4
 813 0314 2F       		.byte	47
 814 0315 2B       		.byte	43
 815 0316 FF       		.byte	-1
 816 0317 09       		.byte	9
 817 0318 29       		.byte	41
 818 0319 F6       		.byte	-10
 819 031a 20       		.byte	32
 820 031b C0       		.byte	-64
 821 031c 88       		.byte	-120
 822 031d 7E       		.byte	126
 823 031e 09       		.byte	9
 824 031f 03       		.byte	3
 825 0320 20       		.byte	32
 826 0321 54       		.byte	84
 827 0322 54       		.byte	84
 828 0323 79       		.byte	121
 829 0324 41       		.byte	65
 830 0325 00       		.byte	0
 831 0326 00       		.byte	0
 832 0327 44       		.byte	68
 833 0328 7D       		.byte	125
 834 0329 41       		.byte	65
 835 032a 30       		.byte	48
 836 032b 48       		.byte	72
 837 032c 48       		.byte	72
 838 032d 4A       		.byte	74
 839 032e 32       		.byte	50
 840 032f 38       		.byte	56
 841 0330 40       		.byte	64
 842 0331 40       		.byte	64
 843 0332 22       		.byte	34
 844 0333 7A       		.byte	122
 845 0334 00       		.byte	0
 846 0335 7A       		.byte	122
 847 0336 0A       		.byte	10
 848 0337 0A       		.byte	10
 849 0338 72       		.byte	114
 850 0339 7D       		.byte	125
 851 033a 0D       		.byte	13
 852 033b 19       		.byte	25
 853 033c 31       		.byte	49
 854 033d 7D       		.byte	125
 855 033e 26       		.byte	38
ARM GAS  C:\Users\rolsa\AppData\Local\Temp\cclyXOdI.s 			page 16


 856 033f 29       		.byte	41
 857 0340 29       		.byte	41
 858 0341 2F       		.byte	47
 859 0342 28       		.byte	40
 860 0343 26       		.byte	38
 861 0344 29       		.byte	41
 862 0345 29       		.byte	41
 863 0346 29       		.byte	41
 864 0347 26       		.byte	38
 865 0348 30       		.byte	48
 866 0349 48       		.byte	72
 867 034a 4D       		.byte	77
 868 034b 40       		.byte	64
 869 034c 20       		.byte	32
 870 034d 38       		.byte	56
 871 034e 08       		.byte	8
 872 034f 08       		.byte	8
 873 0350 08       		.byte	8
 874 0351 08       		.byte	8
 875 0352 08       		.byte	8
 876 0353 08       		.byte	8
 877 0354 08       		.byte	8
 878 0355 08       		.byte	8
 879 0356 38       		.byte	56
 880 0357 2F       		.byte	47
 881 0358 10       		.byte	16
 882 0359 C8       		.byte	-56
 883 035a AC       		.byte	-84
 884 035b BA       		.byte	-70
 885 035c 2F       		.byte	47
 886 035d 10       		.byte	16
 887 035e 28       		.byte	40
 888 035f 34       		.byte	52
 889 0360 FA       		.byte	-6
 890 0361 00       		.byte	0
 891 0362 00       		.byte	0
 892 0363 7B       		.byte	123
 893 0364 00       		.byte	0
 894 0365 00       		.byte	0
 895 0366 08       		.byte	8
 896 0367 14       		.byte	20
 897 0368 2A       		.byte	42
 898 0369 14       		.byte	20
 899 036a 22       		.byte	34
 900 036b 22       		.byte	34
 901 036c 14       		.byte	20
 902 036d 2A       		.byte	42
 903 036e 14       		.byte	20
 904 036f 08       		.byte	8
 905 0370 AA       		.byte	-86
 906 0371 00       		.byte	0
 907 0372 55       		.byte	85
 908 0373 00       		.byte	0
 909 0374 AA       		.byte	-86
 910 0375 AA       		.byte	-86
 911 0376 55       		.byte	85
 912 0377 AA       		.byte	-86
ARM GAS  C:\Users\rolsa\AppData\Local\Temp\cclyXOdI.s 			page 17


 913 0378 55       		.byte	85
 914 0379 AA       		.byte	-86
 915 037a 00       		.byte	0
 916 037b 00       		.byte	0
 917 037c 00       		.byte	0
 918 037d FF       		.byte	-1
 919 037e 00       		.byte	0
 920 037f 10       		.byte	16
 921 0380 10       		.byte	16
 922 0381 10       		.byte	16
 923 0382 FF       		.byte	-1
 924 0383 00       		.byte	0
 925 0384 14       		.byte	20
 926 0385 14       		.byte	20
 927 0386 14       		.byte	20
 928 0387 FF       		.byte	-1
 929 0388 00       		.byte	0
 930 0389 10       		.byte	16
 931 038a 10       		.byte	16
 932 038b FF       		.byte	-1
 933 038c 00       		.byte	0
 934 038d FF       		.byte	-1
 935 038e 10       		.byte	16
 936 038f 10       		.byte	16
 937 0390 F0       		.byte	-16
 938 0391 10       		.byte	16
 939 0392 F0       		.byte	-16
 940 0393 14       		.byte	20
 941 0394 14       		.byte	20
 942 0395 14       		.byte	20
 943 0396 FC       		.byte	-4
 944 0397 00       		.byte	0
 945 0398 14       		.byte	20
 946 0399 14       		.byte	20
 947 039a F7       		.byte	-9
 948 039b 00       		.byte	0
 949 039c FF       		.byte	-1
 950 039d 00       		.byte	0
 951 039e 00       		.byte	0
 952 039f FF       		.byte	-1
 953 03a0 00       		.byte	0
 954 03a1 FF       		.byte	-1
 955 03a2 14       		.byte	20
 956 03a3 14       		.byte	20
 957 03a4 F4       		.byte	-12
 958 03a5 04       		.byte	4
 959 03a6 FC       		.byte	-4
 960 03a7 14       		.byte	20
 961 03a8 14       		.byte	20
 962 03a9 17       		.byte	23
 963 03aa 10       		.byte	16
 964 03ab 1F       		.byte	31
 965 03ac 10       		.byte	16
 966 03ad 10       		.byte	16
 967 03ae 1F       		.byte	31
 968 03af 10       		.byte	16
 969 03b0 1F       		.byte	31
ARM GAS  C:\Users\rolsa\AppData\Local\Temp\cclyXOdI.s 			page 18


 970 03b1 14       		.byte	20
 971 03b2 14       		.byte	20
 972 03b3 14       		.byte	20
 973 03b4 1F       		.byte	31
 974 03b5 00       		.byte	0
 975 03b6 10       		.byte	16
 976 03b7 10       		.byte	16
 977 03b8 10       		.byte	16
 978 03b9 F0       		.byte	-16
 979 03ba 00       		.byte	0
 980 03bb 00       		.byte	0
 981 03bc 00       		.byte	0
 982 03bd 00       		.byte	0
 983 03be 1F       		.byte	31
 984 03bf 10       		.byte	16
 985 03c0 10       		.byte	16
 986 03c1 10       		.byte	16
 987 03c2 10       		.byte	16
 988 03c3 1F       		.byte	31
 989 03c4 10       		.byte	16
 990 03c5 10       		.byte	16
 991 03c6 10       		.byte	16
 992 03c7 10       		.byte	16
 993 03c8 F0       		.byte	-16
 994 03c9 10       		.byte	16
 995 03ca 00       		.byte	0
 996 03cb 00       		.byte	0
 997 03cc 00       		.byte	0
 998 03cd FF       		.byte	-1
 999 03ce 10       		.byte	16
 1000 03cf 10       		.byte	16
 1001 03d0 10       		.byte	16
 1002 03d1 10       		.byte	16
 1003 03d2 10       		.byte	16
 1004 03d3 10       		.byte	16
 1005 03d4 10       		.byte	16
 1006 03d5 10       		.byte	16
 1007 03d6 10       		.byte	16
 1008 03d7 FF       		.byte	-1
 1009 03d8 10       		.byte	16
 1010 03d9 00       		.byte	0
 1011 03da 00       		.byte	0
 1012 03db 00       		.byte	0
 1013 03dc FF       		.byte	-1
 1014 03dd 14       		.byte	20
 1015 03de 00       		.byte	0
 1016 03df 00       		.byte	0
 1017 03e0 FF       		.byte	-1
 1018 03e1 00       		.byte	0
 1019 03e2 FF       		.byte	-1
 1020 03e3 00       		.byte	0
 1021 03e4 00       		.byte	0
 1022 03e5 1F       		.byte	31
 1023 03e6 10       		.byte	16
 1024 03e7 17       		.byte	23
 1025 03e8 00       		.byte	0
 1026 03e9 00       		.byte	0
ARM GAS  C:\Users\rolsa\AppData\Local\Temp\cclyXOdI.s 			page 19


 1027 03ea FC       		.byte	-4
 1028 03eb 04       		.byte	4
 1029 03ec F4       		.byte	-12
 1030 03ed 14       		.byte	20
 1031 03ee 14       		.byte	20
 1032 03ef 17       		.byte	23
 1033 03f0 10       		.byte	16
 1034 03f1 17       		.byte	23
 1035 03f2 14       		.byte	20
 1036 03f3 14       		.byte	20
 1037 03f4 F4       		.byte	-12
 1038 03f5 04       		.byte	4
 1039 03f6 F4       		.byte	-12
 1040 03f7 00       		.byte	0
 1041 03f8 00       		.byte	0
 1042 03f9 FF       		.byte	-1
 1043 03fa 00       		.byte	0
 1044 03fb F7       		.byte	-9
 1045 03fc 14       		.byte	20
 1046 03fd 14       		.byte	20
 1047 03fe 14       		.byte	20
 1048 03ff 14       		.byte	20
 1049 0400 14       		.byte	20
 1050 0401 14       		.byte	20
 1051 0402 14       		.byte	20
 1052 0403 F7       		.byte	-9
 1053 0404 00       		.byte	0
 1054 0405 F7       		.byte	-9
 1055 0406 14       		.byte	20
 1056 0407 14       		.byte	20
 1057 0408 14       		.byte	20
 1058 0409 17       		.byte	23
 1059 040a 14       		.byte	20
 1060 040b 10       		.byte	16
 1061 040c 10       		.byte	16
 1062 040d 1F       		.byte	31
 1063 040e 10       		.byte	16
 1064 040f 1F       		.byte	31
 1065 0410 14       		.byte	20
 1066 0411 14       		.byte	20
 1067 0412 14       		.byte	20
 1068 0413 F4       		.byte	-12
 1069 0414 14       		.byte	20
 1070 0415 10       		.byte	16
 1071 0416 10       		.byte	16
 1072 0417 F0       		.byte	-16
 1073 0418 10       		.byte	16
 1074 0419 F0       		.byte	-16
 1075 041a 00       		.byte	0
 1076 041b 00       		.byte	0
 1077 041c 1F       		.byte	31
 1078 041d 10       		.byte	16
 1079 041e 1F       		.byte	31
 1080 041f 00       		.byte	0
 1081 0420 00       		.byte	0
 1082 0421 00       		.byte	0
 1083 0422 1F       		.byte	31
ARM GAS  C:\Users\rolsa\AppData\Local\Temp\cclyXOdI.s 			page 20


 1084 0423 14       		.byte	20
 1085 0424 00       		.byte	0
 1086 0425 00       		.byte	0
 1087 0426 00       		.byte	0
 1088 0427 FC       		.byte	-4
 1089 0428 14       		.byte	20
 1090 0429 00       		.byte	0
 1091 042a 00       		.byte	0
 1092 042b F0       		.byte	-16
 1093 042c 10       		.byte	16
 1094 042d F0       		.byte	-16
 1095 042e 10       		.byte	16
 1096 042f 10       		.byte	16
 1097 0430 FF       		.byte	-1
 1098 0431 10       		.byte	16
 1099 0432 FF       		.byte	-1
 1100 0433 14       		.byte	20
 1101 0434 14       		.byte	20
 1102 0435 14       		.byte	20
 1103 0436 FF       		.byte	-1
 1104 0437 14       		.byte	20
 1105 0438 10       		.byte	16
 1106 0439 10       		.byte	16
 1107 043a 10       		.byte	16
 1108 043b 1F       		.byte	31
 1109 043c 00       		.byte	0
 1110 043d 00       		.byte	0
 1111 043e 00       		.byte	0
 1112 043f 00       		.byte	0
 1113 0440 F0       		.byte	-16
 1114 0441 10       		.byte	16
 1115 0442 FF       		.byte	-1
 1116 0443 FF       		.byte	-1
 1117 0444 FF       		.byte	-1
 1118 0445 FF       		.byte	-1
 1119 0446 FF       		.byte	-1
 1120 0447 F0       		.byte	-16
 1121 0448 F0       		.byte	-16
 1122 0449 F0       		.byte	-16
 1123 044a F0       		.byte	-16
 1124 044b F0       		.byte	-16
 1125 044c FF       		.byte	-1
 1126 044d FF       		.byte	-1
 1127 044e FF       		.byte	-1
 1128 044f 00       		.byte	0
 1129 0450 00       		.byte	0
 1130 0451 00       		.byte	0
 1131 0452 00       		.byte	0
 1132 0453 00       		.byte	0
 1133 0454 FF       		.byte	-1
 1134 0455 FF       		.byte	-1
 1135 0456 0F       		.byte	15
 1136 0457 0F       		.byte	15
 1137 0458 0F       		.byte	15
 1138 0459 0F       		.byte	15
 1139 045a 0F       		.byte	15
 1140 045b 38       		.byte	56
ARM GAS  C:\Users\rolsa\AppData\Local\Temp\cclyXOdI.s 			page 21


 1141 045c 44       		.byte	68
 1142 045d 44       		.byte	68
 1143 045e 38       		.byte	56
 1144 045f 44       		.byte	68
 1145 0460 7C       		.byte	124
 1146 0461 2A       		.byte	42
 1147 0462 2A       		.byte	42
 1148 0463 3E       		.byte	62
 1149 0464 14       		.byte	20
 1150 0465 7E       		.byte	126
 1151 0466 02       		.byte	2
 1152 0467 02       		.byte	2
 1153 0468 06       		.byte	6
 1154 0469 06       		.byte	6
 1155 046a 02       		.byte	2
 1156 046b 7E       		.byte	126
 1157 046c 02       		.byte	2
 1158 046d 7E       		.byte	126
 1159 046e 02       		.byte	2
 1160 046f 63       		.byte	99
 1161 0470 55       		.byte	85
 1162 0471 49       		.byte	73
 1163 0472 41       		.byte	65
 1164 0473 63       		.byte	99
 1165 0474 38       		.byte	56
 1166 0475 44       		.byte	68
 1167 0476 44       		.byte	68
 1168 0477 3C       		.byte	60
 1169 0478 04       		.byte	4
 1170 0479 40       		.byte	64
 1171 047a 7E       		.byte	126
 1172 047b 20       		.byte	32
 1173 047c 1E       		.byte	30
 1174 047d 20       		.byte	32
 1175 047e 06       		.byte	6
 1176 047f 02       		.byte	2
 1177 0480 7E       		.byte	126
 1178 0481 02       		.byte	2
 1179 0482 02       		.byte	2
 1180 0483 99       		.byte	-103
 1181 0484 A5       		.byte	-91
 1182 0485 E7       		.byte	-25
 1183 0486 A5       		.byte	-91
 1184 0487 99       		.byte	-103
 1185 0488 1C       		.byte	28
 1186 0489 2A       		.byte	42
 1187 048a 49       		.byte	73
 1188 048b 2A       		.byte	42
 1189 048c 1C       		.byte	28
 1190 048d 4C       		.byte	76
 1191 048e 72       		.byte	114
 1192 048f 01       		.byte	1
 1193 0490 72       		.byte	114
 1194 0491 4C       		.byte	76
 1195 0492 30       		.byte	48
 1196 0493 4A       		.byte	74
 1197 0494 4D       		.byte	77
ARM GAS  C:\Users\rolsa\AppData\Local\Temp\cclyXOdI.s 			page 22


 1198 0495 4D       		.byte	77
 1199 0496 30       		.byte	48
 1200 0497 30       		.byte	48
 1201 0498 48       		.byte	72
 1202 0499 78       		.byte	120
 1203 049a 48       		.byte	72
 1204 049b 30       		.byte	48
 1205 049c BC       		.byte	-68
 1206 049d 62       		.byte	98
 1207 049e 5A       		.byte	90
 1208 049f 46       		.byte	70
 1209 04a0 3D       		.byte	61
 1210 04a1 3E       		.byte	62
 1211 04a2 49       		.byte	73
 1212 04a3 49       		.byte	73
 1213 04a4 49       		.byte	73
 1214 04a5 00       		.byte	0
 1215 04a6 7E       		.byte	126
 1216 04a7 01       		.byte	1
 1217 04a8 01       		.byte	1
 1218 04a9 01       		.byte	1
 1219 04aa 7E       		.byte	126
 1220 04ab 2A       		.byte	42
 1221 04ac 2A       		.byte	42
 1222 04ad 2A       		.byte	42
 1223 04ae 2A       		.byte	42
 1224 04af 2A       		.byte	42
 1225 04b0 44       		.byte	68
 1226 04b1 44       		.byte	68
 1227 04b2 5F       		.byte	95
 1228 04b3 44       		.byte	68
 1229 04b4 44       		.byte	68
 1230 04b5 40       		.byte	64
 1231 04b6 51       		.byte	81
 1232 04b7 4A       		.byte	74
 1233 04b8 44       		.byte	68
 1234 04b9 40       		.byte	64
 1235 04ba 40       		.byte	64
 1236 04bb 44       		.byte	68
 1237 04bc 4A       		.byte	74
 1238 04bd 51       		.byte	81
 1239 04be 40       		.byte	64
 1240 04bf 00       		.byte	0
 1241 04c0 00       		.byte	0
 1242 04c1 FF       		.byte	-1
 1243 04c2 01       		.byte	1
 1244 04c3 03       		.byte	3
 1245 04c4 E0       		.byte	-32
 1246 04c5 80       		.byte	-128
 1247 04c6 FF       		.byte	-1
 1248 04c7 00       		.byte	0
 1249 04c8 00       		.byte	0
 1250 04c9 08       		.byte	8
 1251 04ca 08       		.byte	8
 1252 04cb 6B       		.byte	107
 1253 04cc 6B       		.byte	107
 1254 04cd 08       		.byte	8
ARM GAS  C:\Users\rolsa\AppData\Local\Temp\cclyXOdI.s 			page 23


 1255 04ce 36       		.byte	54
 1256 04cf 12       		.byte	18
 1257 04d0 36       		.byte	54
 1258 04d1 24       		.byte	36
 1259 04d2 36       		.byte	54
 1260 04d3 06       		.byte	6
 1261 04d4 0F       		.byte	15
 1262 04d5 09       		.byte	9
 1263 04d6 0F       		.byte	15
 1264 04d7 06       		.byte	6
 1265 04d8 00       		.byte	0
 1266 04d9 00       		.byte	0
 1267 04da 18       		.byte	24
 1268 04db 18       		.byte	24
 1269 04dc 00       		.byte	0
 1270 04dd 00       		.byte	0
 1271 04de 00       		.byte	0
 1272 04df 10       		.byte	16
 1273 04e0 10       		.byte	16
 1274 04e1 00       		.byte	0
 1275 04e2 30       		.byte	48
 1276 04e3 40       		.byte	64
 1277 04e4 FF       		.byte	-1
 1278 04e5 01       		.byte	1
 1279 04e6 01       		.byte	1
 1280 04e7 00       		.byte	0
 1281 04e8 1F       		.byte	31
 1282 04e9 01       		.byte	1
 1283 04ea 01       		.byte	1
 1284 04eb 1E       		.byte	30
 1285 04ec 00       		.byte	0
 1286 04ed 19       		.byte	25
 1287 04ee 1D       		.byte	29
 1288 04ef 17       		.byte	23
 1289 04f0 12       		.byte	18
 1290 04f1 00       		.byte	0
 1291 04f2 3C       		.byte	60
 1292 04f3 3C       		.byte	60
 1293 04f4 3C       		.byte	60
 1294 04f5 3C       		.byte	60
 1295 04f6 00       		.byte	0
 1296 04f7 00       		.byte	0
 1297 04f8 00       		.byte	0
 1298 04f9 00       		.byte	0
 1299 04fa 00       		.byte	0
 1300              		.text
 1301              	.Letext0:
 1302              		.file 1 "c:\\program files (x86)\\cypress\\psoc creator\\4.4\\psoc creator\\import\\gnu\\arm\\5.4.
 1303              		.file 2 "c:\\program files (x86)\\cypress\\psoc creator\\4.4\\psoc creator\\import\\gnu\\arm\\5.4.
 1304              		.file 3 "displayFont5x7.c"
